:020000040800F2
:1000000000500020C11F0008E5040008E7040008B4
:10001000E9040008EB040008ED04000800000000FB
:10002000000000000000000000000000EF040008D5
:10003000F104000800000000F3040008F5040008C3
:1000400009200008092000080920000809200008EC
:1000500009200008092000080920000809200008DC
:10006000092000080920000809200008FD040008F4
:1000700009200008092000080920000809200008BC
:1000800009200008092000080D05000809200008C3
:10009000092000080920000809200008092000089C
:1000A000092000080920000809200008092000088C
:1000B000092000080920000809200008092000087C
:1000C000092000080920000809200008092000086C
:1000D000092000080920000809200008092000085C
:1000E000092000080920000809200008000000007D
:1000F0000000000000000000000000000000000000
:0C01000000000000000000005FF808F1A3
:10010C000348044B834202D0034B03B1184770479A
:10011C000C0000200C0000200000000005480649DF
:10012C000B1AD90F01EBA301491002D0034B03B1F9
:10013C00184770470C0000200C0000200000000045
:10014C0010B5064C237843B9FFF7DAFF044B13B113
:10015C000448AFF300800123237010BD0C00002075
:10016C00000000000C20000808B5044B1BB104492A
:10017C000448AFF30080BDE80840CFE70000000062
:10018C00100000200C20000870B50D4E0D4D761B94
:10019C00B61006D0002455F8043B01349847A6420B
:1001AC00F9D1094E094D01F02BFF761BB61006D084
:1001BC00002455F8043B01349847A642F9D170BD90
:1001CC00502000085020000854200008502000083F
:1001DC00830730B548D0541E002A3FD00346CAB21C
:1001EC0001E0013C3AD303F8012B9D07F9D1032C14
:1001FC002DD9CDB245EA05250F2C45EA054536D952
:10020C00A4F1100222F00F0C03F1200EE6444FEA89
:10021C00121C03F1100242E9045542E90255103256
:10022C007245F8D10CF1010214F00C0F03EB021221
:10023C0004F00F0C13D0ACF1040323F003030433CC
:10024C00134442F8045B9342FBD10CF003042CB131
:10025C00CAB21C4403F8012B9C42FBD130BD64464E
:10026C001346002CF4D1F9E703461446BFE71A46AF
:10027C00A446E0E782B00A4B9A6942F020029A61E8
:10028C009A6902F020020092009A9A6942F00402E4
:10029C009A619B6903F004030193019B02B07047C0
:1002AC000010024000B583B00A4B5A6942F00102BB
:1002BC005A615B6903F001030193019B0022114613
:1002CC000B2001F05DFB0B2001F092FB03B05DF8FD
:1002DC0004FB00BF00100240014B01221A60704762
:1002EC002800002072B6FEE700B585B0002301930C
:1002FC00029303930F48104A026083600122027339
:10030C0003754FF46021C1614360026100F056FC3B
:10031C0060B90023019301220292039301A90548BD
:10032C0000F0A2FA20B905B05DF804FBFFF7DAFF84
:10033C00FFF7D8FF300000200024014008B50A4820
:10034C000A4B03604FF4E133436000238360C360C6
:10035C0003610C2242618361C36101F0B3FB00B9FC
:10036C0008BDFFF7BFFF00BFEC00002000380140C4
:10037C0000B58BB000230893099301930293039368
:10038C00049305930693079316484FF0804202603E
:10039C0043608360FF22C2600361836101F08AFCC9
:1003AC00D0B900230893099308A90E4801F0CCFD9D
:1003BC00A0B96023019300230293039305930422B5
:1003CC000DEB0201074801F0D3FC48B9054800F0D9
:1003DC002BF90BB05DF804FBFFF784FFFFF782FFEE
:1003EC00FFF780FFA400002000B595B02822002163
:1003FC000DEB0200FFF7ECFE002305930693079329
:10040C0008930993019302930393049301220A9294
:10041C004FF480330B930E920222119212934FF4ED
:10042C00E01313930AA800F0C3FCC8B90F2305937B
:10043C0002210691002307934FF4806208920993DE
:10044C0005A800F0E7FE68B9022301934FF40043BE
:10045C00039301A800F0BAFF30B915B05DF804FBA6
:10046C00FFF740FFFFF73EFFFFF73CFF10B500F032
:10047C0051FCFFF7B9FFFFF7FDFEFFF713FFFFF786
:10048C0033FFFFF75BFFFFF773FF04210F4801F009
:10049C00EDFC01220E490F4800F0CCFA13E00B4B97
:1004AC001B689C63052000F059FC0134FE2CF6DD22
:1004BC00FF2406E0054B1B689C63052000F04EFCF6
:1004CC00013C002CF6DC0024F0E700BFA400002067
:1004DC002C00002030000020FEE7FEE7FEE7FEE7E0
:1004EC00FEE770477047704708B500F025FC08BD63
:1004FC0008B5024801F090F908BD00BF600000206B
:10050C0008B5024800F020F908BD00BF30000020FB
:10051C0082B00E4B9A6942F001029A619A6902F01C
:10052C0001020092009ADA6942F08052DA61DB69CA
:10053C0003F080530193019B054A536823F0E06359
:10054C0043F00073536002B0704700BF00100240CC
:10055C000000014010B586B000230293039304936E
:10056C0005930268224B9A4201D006B010BD044696
:10057C0003F56C439A6942F400729A619A6902F429
:10058C0000720092009A9A6942F004029A619B6987
:10059C0003F004030193019B0123029303230393B0
:1005AC0002A9144800F09EFF1348144B036000236B
:1005BC00436083608022C2604FF4807202614FF40A
:1005CC008062426120228261C36101F0B3F858B9A4
:1005DC00094B23625C6200220121122001F0D0F948
:1005EC00122001F005FAC0E7FFF77CFEF0E700BF30
:1005FC000024014000080140600000200800024077
:10060C000368B3F1804F00D0704782B003F5043318
:10061C00DA6942F00102DA61DB6903F0010301934C
:10062C00019B02B07047000000B587B00023029315
:10063C000393049305930368B3F1804F02D007B082
:10064C005DF804FB03F504339A6942F004029A61E5
:10065C009B6903F004030193019B02230293039310
:10066C00059302A9014800F03DFFE8E700080140AE
:10067C0010B586B00023029303930493059302688C
:10068C00174B9A4201D006B010BD03F558439A6936
:10069C0042F480429A619A6902F480420092009A74
:1006AC009A6942F004029A619B6903F00403019376
:1006BC00019B4FF4007302930223039303230593CE
:1006CC00084C02A9204600F00DFF4FF48063029302
:1006DC0000230393049302A9204600F003FFD2E702
:1006EC00003801400008014008B5436A9A6A12F0CC
:1006FC00500F1ED19A6A42F400729A621A6892687C
:10070C0002F46022B2F5602F03D01846FFF7E4FD27
:10071C0008BD1A7B002AF8D19A6A22F480729A6278
:10072C009A6A12F4805FF0D19A6A42F001029A62DE
:10073C00EBE71B6A1B6B9847EAE7704708B5406A02
:10074C00FFF7FBFF08BD704770B5044603681E68D1
:10075C005D6815F0200F17D016F0020F14D0826AC6
:10076C0012F0100F03D1826A42F4007282629A680E
:10077C0002F46022B2F5602F33D02046FFF7ACFDB7
:10078C0023686FF012021A6015F0800F22D016F059
:10079C00040F1FD0A36A13F0100F03D1A36A43F404
:1007AC000053A3622268936803F4E043B3F5E04F6F
:1007BC002ED0536813F4806F05D1936803F4602333
:1007CC00B3F5602F21D0204600F07CFA23686FF03F
:1007DC000C021A6015F0400F02D016F0010F28D150
:1007EC0070BD227B002AC8D15A6822F020025A60C0
:1007FC00A36A23F48073A362A36A13F4805FBCD151
:10080C00A36A43F00103A362B7E7237B002BDAD181
:10081C00536823F080035360A36A23F48053A362CC
:10082C00A36A13F4807FCED1A36A43F00103A362C1
:10083C00C9E7A36A43F48033A3622046FFF783FF22
:10084C0023686FF001021A60CAE7704708B5406A66
:10085C00836A43F040038362C36A43F00403C362B8
:10086C00FFF7F3FF08BD000030B482B00022019204
:10087C0090F82420012A00F091800346012280F890
:10088C0024204A68062A2DD80468606B02EB820289
:10089C00053A4FF01F0C0CFA02FC20EA0C000D6814
:1008AC0005FA02F2024362630A68092A3AD91C6803
:1008BC00E06802EB42021E3A4FF0070C0CFA02FC05
:1008CC0020EA0C008D6805FA02F20243E2600A6825
:1008DC00103A012A36D90020002283F8242002B0D5
:1008EC0030BC70470C2A0ED80568286B02EB8202CC
:1008FC00233A1F24944020EA04000C6804FA02F204
:10090C0002432A63D0E70568E86A02EB8202413AA7
:10091C001F24944020EA04000C6804FA02F20243FB
:10092C00EA62C1E71C68206902EB42024FF0070C37
:10093C000CFA02FC20EA0C008D6805FA02F2024364
:10094C002261C4E71A681648824205D09A6A42F0BE
:10095C0020029A620120BFE7906810F4000F1BD1AF
:10096C00906840F4000090600A68102A01D00020C2
:10097C00B2E70C4A12680C49A1FB0212920C02EB72
:10098C0082025200019202E0019A013A0192019A0C
:10099C00002AF9D100209FE700209DE702209EE766
:1009AC00002401400800002083DE1B4330B583B0D7
:1009BC000023019303689A6812F0010F33D10446A7
:1009CC009A6842F001029A60184B1B68184AA2FB05
:1009DC0003239B0C019302E0019B013B0193019BC0
:1009EC00002BF9D100F0B4F9054623689B6813F08D
:1009FC00010F16D100F0ACF9431B022BF5D923687B
:100A0C009B6813F0010FF0D1A36A43F01003A362AB
:100A1C00E36A43F00103E362002384F824300120ED
:100A2C0002E0002000E0002003B030BD08000020F0
:100A3C0083DE1B43F8B504460D4616460168444850
:100A4C00814259D0434B994256D094F82430012B13
:100A5C007CD0012384F824302046FFF7A7FF0746FB
:100A6C0000286ED1A16A21F4706121F0010141F4DA
:100A7C008071A1622268374B9A4244D0A36A23F456
:100A8C008013A362536813F4806F05D0A36A23F418
:100A9C00405343F48053A362A36A13F4805F48D09D
:100AAC00E36A23F00603E362002384F82430236A0C
:100ABC00294A9A62236A294ADA62236A284A1A6303
:100ACC0023686FF002021A602268936843F4807303
:100ADC009360216833462A464C31206A00F060FE50
:100AEC0023689A6802F46022B2F5602F24D09A68C9
:100AFC0042F480129A6027E0154B5B6813F4702F58
:100B0C00A3D0012720E0A3F580635B6813F4702F5A
:100B1C00B4D0A36A43F48013A3620D4B5B6813F447
:100B2C00806FB9D0A36A23F4405343F48053A3627B
:100B3C00B2E70023E362B7E79A6842F4A0029A6036
:100B4C0002E0002384F824303846F8BD0227FBE786
:100B5C000024014000280140F50600084907000860
:100B6C005908000838B503689A6812F0010F01D1D2
:100B7C00002038BD04469A6822F001029A6000F009
:100B8C00E7F8054623689B6813F0010F13D000F0BB
:100B9C00DFF8431B022BF5D923689B6813F0010F78
:100BAC00F0D0A36A43F01003A362E36A43F001039D
:100BBC00E3620120DDE70020DBE7000000287BD0AA
:100BCC0070B50446836A002B4DD02046FFF7CAFF50
:100BDC00A36A13F0100369D1002867D1A26A22F42A
:100BEC00885222F0020242F00202A2626268E169BB
:100BFC000A43217B42EA4102A568B5F5807F02D009
:100C0C00012D36D01D46267D012E35D02668716803
:100C1C0021F46941294371602568AE682749314048
:100C2C001143A960A168B1F5807F01D0012902D1DF
:100C3C002369013B1B052568E96A21F470010B430C
:100C4C00EB62236899681E4B0B409A4225D0A36A2D
:100C5C0023F0120343F01003A362E36A43F0010391
:100C6C00E362012027E0C36280F82430FFF772FCB6
:100C7C00ABE74FF48075C6E731B9A169013945EA94
:100C8C00413141F40065C1E7A16A41F02001A16244
:100C9C00E16A41F00101E162B8E70023E362A36A73
:100CAC0023F0030343F00103A36204E0A36A43F0BF
:100CBC001003A362012070BD01207047FDF7E1FF16
:100CCC00FE0E1FFF7047000010B504460E4B18783F
:100CDC004FF47A73B3FBF0F30C4A1068B0FBF3F0EB
:100CEC0000F092FE68B90F2C01D901200AE0002215
:100CFC0021464FF0FF3000F043FE054B1C600020F6
:100D0C0000E0012010BD00BF000000200800002002
:100D1C000400002008B5074A136843F01003136061
:100D2C00032000F01BFE0F20FFF7CEFFFFF7F0FBB8
:100D3C00002008BD00200240034A1168034B1B78B9
:100D4C000B441360704700BF3401002000000020EA
:100D5C00014B1868704700BF3401002038B50446B9
:100D6C00FFF7F6FF0546B4F1FF3F02D0044B1B78AA
:100D7C001C44FFF7EDFF401BA042FAD338BD00BF67
:100D8C000000002082B0084B1B68084AA2FB03231A
:100D9C005B0A00FB03F3019300BF019B5A1E0192F7
:100DAC00002BF9D102B0704708000020D34D62101F
:100DBC00002800F0F18170B582B00446036813F08E
:100DCC00010F2CD0994B5B6803F00C03042B1DD046
:100DDC00964B5B6803F00C03082B12D06368B3F5D9
:100DEC00803F41D0002B55D103F1804303F50433F0
:100DFC001A6822F480321A601A6822F480221A606F
:100E0C0037E08A4B5B6813F4803FE7D0874B1B6855
:100E1C0013F4003F03D06368002B00F0BF812368FC
:100E2C0013F0020F75D0814B5B6813F00C0F5FD081
:100E3C007E4B5B6803F00C03082B54D02369002B0A
:100E4C0000F08A807A4B01221A60FFF781FF054679
:100E5C00764B1B6813F0020F75D1FFF779FF401B1F
:100E6C000228F5D903209EE1704A136843F48033BD
:100E7C001360636843B3FFF76BFF05466B4B1B684E
:100E8C0013F4003FCBD1FFF763FF401B6428F5D967
:100E9C00032088E1B3F5A02F09D0644B1A6822F423
:100EAC0080321A601A6822F480221A60E1E703F19A
:100EBC008043A3F53C331A6842F480221A601A6806
:100ECC0042F480321A60D4E7FFF742FF0546574BD5
:100EDC001B6813F4003FA2D0FFF73AFF401B6428B5
:100EEC00F5D903205FE1514B5B6813F4803FA5D12A
:100EFC004E4B1B6813F0020F03D02369012B40F0FB
:100F0C004F814A4A136823F0F803616943EAC1032D
:100F1C001360236813F0080F33D0A369002B5CD047
:100F2C00434B0122C3F88024FFF712FF05463F4BC9
:100F3C005B6A13F0020F21D1FFF70AFF401B022856
:100F4C00F5D903202FE1394A136823F0F8036169BE
:100F5C0043EAC1031360DCE7354B00221A60FFF74C
:100F6C00F7FE0546314B1B6813F0020FD1D0FFF78B
:100F7C00EFFE401B0228F5D9032014E10120FFF7F6
:100F8C0001FF236813F0040F00F09680274BDB69F8
:100F9C0013F0805F34D1254BDA6942F08052DA616C
:100FAC00DB6903F080530193019B0125214B1B68E6
:100FBC0013F4807F26D0E368012B3DD0002B53D156
:100FCC0003F1804303F504331A6A22F001021A621A
:100FDC001A6A22F004021A6233E0154B0022C3F89D
:100FEC008024FFF7B5FE0546104B5B6A13F0020F29
:100FFC00C7D0FFF7ADFE401B0228F5D90320D2E085
:10100C000025D3E70B4A136843F480731360FFF792
:10101C009FFE0646074B1B6813F4807FCBD1FFF76E
:10102C0097FE801B6428F5D90320BCE00010024019
:10103C0000004242007000405F4A136A43F0010313
:10104C001362E36833B3FFF783FE06465A4B1B6A01
:10105C0013F0020F2FD1FFF77BFE801B41F2883378
:10106C009842F3D903209EE0052B09D0524B1A6A03
:10107C0022F001021A621A6A22F004021A62E0E7F4
:10108C004D4B1A6A42F004021A621A6A42F00102CB
:10109C001A62D6E7FFF75CFE0646474B1B6A13F055
:1010AC00020F08D0FFF754FE801B41F288339842A0
:1010BC00F3D9032077E0E5B9E369002B72D03E4AFF
:1010CC00526802F00C02082A56D0022B17D03B4B68
:1010DC0000221A66FFF73CFE0446374B1B6813F0E0
:1010EC00007F47D0FFF734FE001B0228F5D9032000
:1010FC0059E0314AD36923F08053D361DCE72F4B9D
:10110C0000221A66FFF724FE05462B4B1B6813F0D2
:10111C00007F06D0FFF71CFE401B0228F5D90320E8
:10112C0041E0236AB3F5803F1AD023494B6823F47E
:10113C007413226A606A024313434B601F4B0122F3
:10114C001A66FFF705FE04461B4B1B6813F0007F65
:10115C000ED1FFF7FDFD001B0228F5D9032022E07C
:10116C00154A536823F40033A1680B435360DCE742
:10117C00002018E0002016E0012B16D00E4B5B6807
:10118C0003F48031226A914211D103F47013626A24
:10119C0093420ED1002006E001207047012002E0AE
:1011AC00012000E0002002B070BD0120FBE701200F
:1011BC00F9E70120F7E700BF0010024000004242AF
:1011CC000F4B5B6803F00C02082A01D00D487047E6
:1011DC00C3F383420C49885C13F4803F0BD0084B5B
:1011EC005B68C3F34043094AD35C064A02FB00F038
:1011FC00B0FBF3F07047064B03FB00F0704700BFE9
:10120C000010024000127A0024200008342000084C
:10121C0000093D00002800F0A08070B50D46044682
:10122C00524B1B6803F007038B420BD24F4A1368D7
:10123C0023F007030B431360136803F007038B427F
:10124C0040F08D80236813F0020F17D013F0040FB9
:10125C0004D0474A536843F4E0635360236813F0A7
:10126C00080F04D0424A536843F460535360404A19
:10127C00536823F0F003A1680B435360236813F009
:10128C00010F31D06368012B20D0022B25D0384AB6
:10129C00126812F0020F64D035494A6822F003023A
:1012AC0013434B60FFF754FD0646314B5B6803F06C
:1012BC000C036268B3EB820F16D0FFF749FD801B5D
:1012CC0041F288339842F0D9032045E0284A12684D
:1012DC0012F4003FE0D101203EE0254A126812F0E2
:1012EC00007FD9D1012037E0204B1B6803F00703A6
:1012FC00AB420AD91D4A136823F007032B43136032
:10130C00136803F00703AB422DD1236813F0040FCD
:10131C0006D0174A536823F4E063E1680B4353602B
:10132C00236813F0080F07D0114A536823F4605355
:10133C00216943EAC1035360FFF742FF0C4B5B6822
:10134C00C3F303130B4AD35CD8400B4B18600B4B05
:10135C001868FFF7B9FC002070BD01207047012010
:10136C00FAE70120F8E70120F6E700BF0020024071
:10137C000010024038200008080000200400002063
:10138C00014B1868704700BF0800002008B5FFF734
:10139C00F7FF044B5B68C3F30223034AD35CD840CA
:1013AC0008BD00BF001002404820000808B5FFF738
:1013BC00E7FF044B5B68C3F3C223034AD35CD840FA
:1013CC0008BD00BF001002404820000870B582B074
:1013DC000446036813F0010F36D03F4BDB6913F062
:1013EC00805F49D13C4BDA6942F08052DA61DB69AB
:1013FC0003F080530193019B0125384B1B6813F4B8
:10140C00807F3BD0344B1B6A13F4407313D062685B
:10141C0002F440729A420ED02F4A136A23F44070A1
:10142C002F490126C1F840640026C1F840641062BF
:10143C0013F0010F36D1284A136A23F44073616804
:10144C000B431362002D3ED1236813F0020F06D01C
:10145C00214A536823F44043A1680B43536023682B
:10146C0013F0100F34D01C4A536823F48003E16846
:10147C000B43536000202CE00025BEE7174A13688D
:10148C0043F480731360FFF763FC0646134B1B6831
:10149C0013F4807FB6D1FFF75BFC801B6428F5D971
:1014AC00032016E0FFF754FC06460B4B1B6A13F0A7
:1014BC00020FC0D1FFF74CFC801B41F288339842DD
:1014CC00F3D9032005E0D36923F08053D361BBE744
:1014DC00002002B070BD00BF001002400070004040
:1014EC000000424270B582B00024A446A6E0804DB4
:1014FC00AA4210D007D97F4DAA420CD005F58035F1
:10150C00AA4208D013E0A5F58015AA4203D005F530
:10151C007025AA4207D18A68002A58D0012A51D0D6
:10152C004361082403E0A5F58015AA42F3D0BEF16F
:10153C00FF0F4ED80646BEF1FF0F4CD84FEA8C0277
:10154C0033680F25954023EA050304FA02F213438E
:10155C0033604B6813F0805F6ED0674B9A6942F032
:10156C0001029A619B6903F001030193019B4FEA0D
:10157C009C02951C614B53F825600CF003039D00F5
:10158C000F23AB4026EA03065D4B984229D003F5A6
:10159C008063984200F08E8003F58063984200F0DF
:1015AC008B8003F58063984219D004231AE0CC6831
:1015BC00BDE7CC680434BAE7CC680834B7E7CC682C
:1015CC000C34B4E703610824B1E70024AFE704242A
:1015DC00ADE7061DAFE7ACF108029200B0E70323BC
:1015EC0000E00023AB4033430232444D45F8223037
:1015FC004B6813F4801F61D0424A936843EA0E0390
:10160C0093604B6813F4001F5ED03E4AD36843EAE4
:10161C000E03D3604B6813F4003F5BD0394A536818
:10162C0043EA0E0353604B6813F4803F58D0354A9D
:10163C00136843EA0E0313600CF1010C0A6832FACA
:10164C000CF353D0012303FA0CF302EA030E33EA32
:10165C000202F1D14A68122A3FF649AF122A3FF62C
:10166C0066AF01A555F822F023150008BB1500083C
:10167C00C5150008D71500083B1500083B150008D8
:10168C003B1500083B1500083B1500083B150008EE
:10169C003B1500083B1500083B1500083B150008DE
:1016AC003B1500083B1500083B150008BF1500084A
:1016BC00CB150008012395E7022393E7114A9368A1
:1016CC0023EA0E0393609CE70E4AD36823EA0E03C9
:1016DC00D3609FE70B4A536823EA0E035360A2E7DB
:1016EC00084A136823EA0E031360A5E702B070BD25
:1016FC0000002210000031100010024000000140D8
:10170C00000801400004014030B40124056CAC40D9
:10171C00C56B6C60046863604368102B05D003686C
:10172C0099600368DA6030BC704703689A6003689C
:10173C00D960F8E760B310B402460168154B0B444E
:10174C001548A0FB03031B099B001364134BD363C5
:10175C00022382F82130086820F47F5020F03000FA
:10176C00536894682343D46823431469234354690E
:10177C00234394692343D469234303430B60002020
:10178C009063012382F8213082F8200010BC70474E
:10179C0001207047F8FFFDBFCDCCCCCC000002403F
:1017AC0038B5044690F82000012832D0012084F886
:1017BC00200094F82100C0B2012804D0002384F842
:1017CC002030022038BD022084F821000020A063C4
:1017DC002568286820F0010028602046FFF794FF58
:1017EC00E36A5BB12268136843F00E03136022684E
:1017FC00136843F0010313600020E3E722681368C9
:10180C0023F0040313602268136843F00A03136087
:10181C00EDE70220D6E7000038B5C36B1A68046800
:10182C002568016C04238B40134235D015F0040F4E
:10183C0032D0236813F0200F03D1236823F0040364
:10184C0023600368434A934214D01432934218D055
:10185C001432934217D01432934217D0143293425D
:10186C0017D01432934202D04FF0806203E04FF451
:10187C00800200E00422384B5A60C36A03B19847D7
:10188C0038BD4022F7E74FF48062F4E74FF4804212
:10189C00F1E74FF48022EEE702238B4013423CD059
:1018AC0015F0020F39D0236813F0200F06D12368EE
:1018BC0023F00A032360012380F821300368254AB2
:1018CC00934214D0143293421CD0143293421BD046
:1018DC00143293421BD0143293421BD014329342D5
:1018EC0002D04FF0007203E04FF4001200E002222D
:1018FC00194B5A60002380F82030836A002BBFD02C
:10190C009847BDE72022F3E74FF40072F0E74FF45D
:10191C000052EDE74FF40032EAE7082303FA01F135
:10192C001142ADD015F0080FAAD0236823F00E0396
:10193C002360026CC16B012303FA02F24A608363D9
:10194C0080F82130002380F82030036B002B97D0D7
:10195C00984795E70800024000000240074AD36808
:10196C0023F4E0631B041B0C000200F4E06003434F
:10197C0043F0BF6343F40033D360704700ED00E0E5
:10198C0000B5194BDB68C3F30223C3F1070CBCF1A0
:10199C00040F28BF4FF0040C03F1040EBEF1060F28
:1019AC0018D9033B4FF0FF3E0EFA0CFC21EA0C0158
:1019BC0099400EFA03F322EA0303194300280BDBC8
:1019CC000901C9B200F1604000F5614080F80013D4
:1019DC005DF804FB0023E5E700F00F000901C9B234
:1019EC00024B1954F4E700BF00ED00E014ED00E0E9
:1019FC0000F01F02400901239340024A42F82030B4
:101A0C00704700BF00E100E00138B0F1807F0BD2DD
:101A1C004FF0E0235861054AF02182F82310002092
:101A2C00986107221A6170470120704700ED00E0B1
:101A3C0010B504460268136923F44053C1680B4384
:101A4C00136183680269134342691A430168CB68C6
:101A5C0023F4B05323F00C031343CB600268536997
:101A6C0023F4407381690B4353610268134B9A4210
:101A7C0020D0FFF78BFC024602EB820202EB8202C3
:101A8C0063689B00B2FBF3F20D48A0FB02314909DD
:101A9C00642303FB11231B013233A0FB03235B09DB
:101AAC0003F0F00202EB011203F00F032168134460
:101ABC008B6010BDFFF77AFC0246DDE70038014071
:101ACC001F85EB5160B310B5044690F8413013B349
:101ADC00242384F841302268D36823F40053D36064
:101AEC002046FFF7A5FF2268136923F49043136186
:101AFC002268536923F02A0353612268D36843F4A4
:101B0C000053D36000206064202384F8413084F8B3
:101B1C004230606310BD80F84030FEF7A9FDD7E776
:101B2C00012070477047000070B4036A026A22F00B
:101B3C00010202624668826922F073020C6844EA70
:101B4C00020523F002028B6813430D4CA04209D00E
:101B5C000B4CA0420DD0466085614A68426303621B
:101B6C0070BC704723F00803CA68134323F00403C6
:101B7C00EEE726F440764A6932438E691643EAE76B
:101B8C00002C014030B4036A026A22F480720262B3
:101B9C004568C26922F073020C68224323F4007377
:101BAC008C6843EA04230F4CA04209D00D4CA04290
:101BBC000ED04560C2614A68C263036230BC704794
:101BCC0023F40063CC6843EA042323F48063EDE739
:101BDC0025F440554C6945EA04158C6945EA041511
:101BEC00E7E700BF002C014030B4036A026A22F41C
:101BFC00805202624468C26922F4E6420D6842EAED
:101C0C00052223F400538D6843EA0533074DA8429F
:101C1C0006D04460C2614A680264036230BC7047FB
:101C2C0024F480444D6944EA8514F2E7002C014009
:101C3C0003681F4A90420AD0B0F1804F07D0A2F53A
:101C4C009432904203D002F58062904203D123F08B
:101C5C0070034A681343164A90420AD0B0F1804F81
:101C6C0007D0A2F59432904203D002F580629042E4
:101C7C0003D123F44073CA68134323F080034A69E9
:101C8C00134303608B68C3620B688362084B9842F2
:101C9C000AD001234361036913F0010F03D00369D8
:101CAC0023F00103036170470B690363F1E700BF85
:101CBC00002C014040B310B5044690F83D30F3B110
:101CCC00022384F83D30214651F8040BFFF7B0FF96
:101CDC00012384F8463084F83E3084F83F3084F891
:101CEC00403084F8413084F8423084F8433084F832
:101CFC00443084F8453084F83D30002010BD80F825
:101D0C003C30FEF77DFCDBE70120704730B4036A02
:101D1C00026A22F0100202624468826922F4E642EE
:101D2C000D6842EA052223F020038D6843EA05136F
:101D3C000E4DA84209D00D4DA8420ED044608261D0
:101D4C004A688263036230BC704723F08003CD681D
:101D5C0043EA051323F04003EDE724F440644D6996
:101D6C0044EA85048D6944EA8504E7E7002C0140C8
:101D7C0038B590F83C30012B66D004460D46012353
:101D8C0080F83C300C2A5AD8DFE802F00759595930
:101D9C001B5959593059595944000068FFF7C4FE72
:101DAC002268936943F0080393612268936923F0D6
:101DBC00040393612268936929690B4393610020A2
:101DCC003EE00068FFF7A2FF2268936943F40063CA
:101DDC0093612268936923F4806393612268936909
:101DEC00296943EA01239361002029E00068FFF789
:101DFC00C9FE2268D36943F00803D3612268D36912
:101E0C0023F00403D3612268D36929690B43D3619E
:101E1C00002015E00068FFF7E7FE2268D36943F461
:101E2C000063D3612268D36923F48063D361226891
:101E3C00D369296943EA0123D361002000E0012022
:101E4C00002384F83C3038BD0220FCE701F01F0170
:101E5C00012303FA01FC036A23EA0C030362036AFD
:101E6C0002FA01F10B4303627047000010B50446FF
:101E7C00084651BB94F83E30DBB2013B18BF01233E
:101E8C00002B5BD1002839D1022384F83E3001228B
:101E9C0001462068FFF7DAFF23682A4A93423DD0B7
:101EAC002368284A93423ED0B3F1804F3BD0A2F531
:101EBC009432934237D002F58062934233D01A6841
:101ECC0042F001021A60002039E0042908D00829E8
:101EDC000DD094F84130DBB2013B18BF0123CFE7A2
:101EEC0094F83F30DBB2013B18BF0123C8E794F8EC
:101EFC004030DBB2013B18BF0123C1E7042805D0F9
:101F0C00082807D0022384F84130C0E7022384F864
:101F1C003F30BCE7022384F84030B8E75A6C42F4F7
:101F2C0000425A64BCE79A6802F00702062A07D0FE
:101F3C001A6842F001021A60002000E0012010BD76
:101F4C000020FCE7002C014090F83C30012B2CD0F9
:101F5C0010B4012380F83C30022380F83D30036834
:101F6C005A689C6822F0700C0A6842EA0C025A60AB
:101F7C0003680F4A93420AD0B3F1804F07D0A2F501
:101F8C009432934203D002F58062934204D124F040
:101F9C0080044A6814439C60012380F83D30002380
:101FAC0080F83C30184610BC70470220704700BFC8
:101FBC00002C0140FFF7B6FD0B480C490C4A0023DE
:101FCC0002E0D458C4500433C4188C42F9D3094AE3
:101FDC00094C002301E013600432A242FBD3FEF74C
:101FEC00D3F8FEF743FA7047000000200C000020E5
:101FFC00582000080C00002038010020FEE70000EB
:10200C00F8B500BFF8BC08BC9E467047F8B500BFD9
:08201C00F8BC08BC9E467047A9
:1020240002030405060708090A0B0C0D0E0F101015
:10203400010200000000000000000000010203048F
:0C20440006070809000000000102030468
:04205000750100080E
:042054004D01000832
:0C205800010000001000000000127A00DF
:0400000508001FC10F
:00000001FF
